:0400000056EF00F0C7
:100008005282FACF04F0FBCF05F0D9CF06F0DACF51
:1000180007F0F3CF08F0F4CF09F0F6CF0AF0F7CFE6
:100028000BF0F8CF0CF0F5CF0DF0F2AC1EEF00F0AE
:1000380020EF00F040EF00F0A0A625EF00F027EF3A
:1000480000F030EF00F0A1A62CEF00F02EEF00F04A
:1000580030EF00F0DCEC1DF09DA635EF00F037EF37
:1000680000F040EF00F09EA63CEF00F03EEF00F0FD
:1000780040EF00F0D9EC1DF00DC0F5FF0CC0F8FF03
:100088000BC0F7FF0AC0F6FF09C0F4FF08C0F3FF72
:1000980007C0DAFF06C0D9FF05C0FBFF04C0FAFF9E
:0800A800529211004EEF1CF012
:1008000000FC3700000000943B0000243900000089
:1008100000000000000000000000000000000000D8
:100820000000000000000000006C3A503A00000098
:10083000004C39000030357C35000000000000FA23
:1008400038343A00009C3B383B2C3B2E349A328A99
:100850003B803B203B143B252C2042617474657225
:100860007920766F6C746167653A20002C204661B0
:100870006E2064757479206379636C653A20005446
:10088000656D70657261747572653A2000286E75C9
:100890006C6C2900252E316625730025646D560089
:1008A000696E66006E616E00250D0A00C2B04300DD
:1008B00025640000000E0001876F61C088F062C0EF
:1008C00089F063C08AF064C08BF08BBF6CEF04F0DA
:1008D0006AEF04F080EF04F0010E876F88C00EF01D
:1008E00089C00FF08AC010F08BC011F0E2EC1BF051
:1008F0000EC088F00FC089F010C08AF011C08BF0D4
:10090000000E00018D6F000E8C6FDFC077F0E0C02D
:1009100078F08751D8B48FEF04F091EF04F0A5EF91
:1009200004F08751D8A497EF04F099EF04F09FEFFB
:1009300004F0000E6D6F2B0E6C6FA3EF04F0000E31
:100940006D6F2D0E6C6F6CC087F088C00EF089C083
:100950000FF08AC010F08BC011F016EC16F00E04E8
:100960000F10D8A4B6EF04F0B8EF04F0E7EF04F0EE
:1009700000018751D8B4BFEF04F0C1EF04F0CAEF13
:1009800004F087C000F17707D8A07807000E8D6FBC
:10099000010E8C6F000E8C250E6E010E8D210F6ED8
:1009A000A00E106E8DEC1BF00001FD0E7727FF0EE0
:1009B000782360C01CF0000E1D6E010E1E6E77C005
:1009C0001FF078C020F087EC19F04DEF09F088C0D7
:1009D0000EF089C00FF08AC010F08BC011F016EC39
:1009E00016F00E500F10D8A4F8EF04F0FAEF04F050
:1009F00018EF05F000018751D8B401EF05F003EFBF
:100A000005F00CEF05F087C000F17707D8A0780754
:100A1000000E8D6F010E8C6F000E8C250E6E010E78
:100A20008D210F6EA40E106E8DEC1BF0D4EF04F030
:100A3000000E00018E6F000E8F6F800E906F3F0EC4
:100A4000916F000E766F000E756F88C00EF089C032
:100A50000FF08AC010F08BC011F0000E126E000E65
:100A6000136E000E146E000E156EB5EC17F0D8B0B4
:100A70003CEF05F03EEF05F01DEF06F04BEF05F003
:100A800079C08EF07AC08FF07BC090F07CC091F07E
:100A90000001754B762B8EC01CF08FC01DF090C0EE
:100AA0001EF091C01FF0000E206E000E216E200E71
:100AB000226E410E236EAEEC0BF01CC079F01DC00F
:100AC0007AF01EC07BF01FC07CF000017951885D78
:100AD0000E6E7A5189590F6E7B518A59106E7C5176
:100AE0008B59116E45EC1AF011BE82EF05F01150D2
:100AF00010100F1009E1020E0E5CD8A082EF05F075
:100B000084EF05F040EF05F079C035F07AC036F09B
:100B10007BC037F07CC038F088C039F089C03AF02B
:100B20008AC03BF08BC03CF094EC15F0D8A09BEF52
:100B300005F09DEF05F040EF05F000018E51885D56
:100B40000E6E8F5189590F6E90518A59106E9151C6
:100B50008B59116E45EC1AF011BEBCEF05F0115027
:100B600010100F1007E1020E0E5CD8B0BAEF05F0BE
:100B7000BCEF05F004EF06F08EC088F08FC089F05E
:100B800090C08AF091C08BF01DEF06F08EC00EF081
:100B90008FC00FF090C010F091C011F0000E126ED7
:100BA000000E136E200E146E410E156EC3EC0DF088
:100BB0000EC08EF00FC08FF010C090F011C091F0F9
:100BC00000017507D8A076078E51885D0E6E8F5193
:100BD00089590F6E90518A59106E91518B59116E2F
:100BE00045EC1AF011BE02EF06F0115010100F1074
:100BF00007E1020E0E5CD8B000EF06F002EF06F03F
:100C000004EF06F0BCEF05F088C035F089C036F07F
:100C10008AC037F08BC038F08EC039F08FC03AF000
:100C200090C03BF091C03CF094EC15F0D8A01BEFC5
:100C300006F01DEF06F0C6EF05F065C06FF06FC05F
:100C400070F00001E2BF27EF06F029EF06F02FEF6A
:100C500006F0E1C068F0E2C069F033EF06F0000E84
:100C6000696F060E686F68C073F069C074F0734BEB
:100C7000742B660E7019D8A440EF06F042EF06F010
:100C800062EF06F076BF49EF06F047EF06F055EF4A
:100C900006F0000E8E6F000E8F6F800E906F3F0E6D
:100CA000916F000E766F000E756F670E6F19D8B4D6
:100CB0005CEF06F05EEF06F062EF06F07551732709
:100CC00076517423000E7E6F000E7D6F88C07FF01A
:100CD00089C080F08AC081F08BC082F08EC079F02C
:100CE0008FC07AF090C07BF091C07CF0F3EF06F0FB
:100CF0007FC00EF080C00FF081C010F082C011F0F4
:100D00008EC012F08FC013F090C014F091C015F097
:100D1000C3EC0DF00EC027F00FC028F010C029F072
:100D200011C02AF02DEC11F027C083F028C084F008
:100D300029C085F02AC086F083C00EF084C00FF071
:100D400085C010F086C011F08FEC14F00EC071F069
:100D50000FC072F07FC035F080C036F081C037F030
:100D600082C038F083C020F084C021F085C022F01A
:100D700086C023F08EC01CF08FC01DF090C01EF006
:100D800091C01FF0AEEC0BF01CC039F01DC03AF062
:100D90001EC03BF01FC03CF008EC1BF035C07FF0DC
:100DA00036C080F037C081F038C082F08EC00EF0BF
:100DB0008FC00FF090C010F091C011F0000E126EB5
:100DC000000E136E200E146E410E156EC3EC0DF066
:100DD0000EC08EF00FC08FF010C090F011C091F0D7
:100DE00000017D4B7E2B73517D5D7E51800A416EEB
:100DF0007451800A4158D8A000EF07F002EF07F0C5
:100E000078EF06F08EC01CF08FC01DF090C01EF071
:100E100091C01FF0000E206E000E216EA00E226EFB
:100E2000400E236EAEEC0BF01CC083F01DC084F0AE
:100E30001EC085F01FC086F07FC035F080C036F040
:100E400081C037F082C038F083C039F084C03AF0F6
:100E500085C03BF086C03CF094EC15F0D8B033EF81
:100E600007F035EF07F040EF07F0000E0001836F49
:100E7000000E846F000E856F000E866F69EF07F01D
:100E80007FC00EF080C00FF081C010F082C011F062
:100E900083C012F084C013F085C014F086C015F032
:100EA000B5EC17F0D8A057EF07F059EF07F069EF4E
:100EB00007F0000171B15FEF07F061EF07F069EF34
:100EC00007F0000E836F000E846F000E856F000E1A
:100ED000866F88C00EF089C00FF08AC010F08BC0FA
:100EE00011F083C012F084C013F085C014F086C0E6
:100EF00015F04EEC09F00EC07FF00FC080F010C06E
:100F000081F011C082F07FC035F080C036F081C022
:100F100037F082C038F0000E206E000E216E200ED9
:100F2000226E410E236E79C01CF07AC01DF07BC08A
:100F30001EF07CC01FF0AEEC0BF01CC039F01DC0E1
:100F40003AF01EC03BF01FC03CF094EC15F0D8A066
:100F5000ACEF07F0AEEF07F0D7EF07F00001754BED
:100F6000762B79C01CF07AC01DF07BC01EF07CC0CF
:100F70001FF0000E206E000E216E200E226E410E1C
:100F8000236EAEEC0BF01CC079F01DC07AF01EC0D1
:100F90007BF01FC07CF0660E00017019D8A4D3EF5F
:100FA00007F0D5EF07F0D7EF07F0734B742B79C03C
:100FB0008EF07AC08FF07BC090F07CC091F075C04D
:100FC00066F076C067F0000E00016E6F000E6B6F6A
:100FD000000E6A6F000E7E6F000E7D6FD5EF08F079
:100FE0007FC00EF080C00FF081C010F082C011F001
:100FF0008EC012F08FC013F090C014F091C015F0A5
:10100000C3EC0DF00EC027F00FC028F010C029F07F
:1010100011C02AF02DEC11F027C083F028C084F015
:1010200029C085F02AC086F083C00EF084C00FF07E
:1010300085C010F086C011F08FEC14F00FBE2CEFBD
:1010400008F00F5007E10A0E0E5CD8B02AEF08F046
:101050002CEF08F03CEF08F083C00EF084C00FF0D6
:1010600085C010F086C011F08FEC14F00EC071F046
:101070000FC072F041EF08F0000E0001726F090E10
:10108000716F00016E51D8A448EF08F04AEF08F0E4
:1010900072EF08F067BF51EF08F04FEF08F072EF02
:1010A00008F0000E8C25D96E010E8D21DA6E2E0E01
:1010B000DF6E8C4B8D2B7707D8A07807010E6E6FF3
:1010C00072EF08F0000E8C25D96E010E8D21DA6EBC
:1010D000300EDF6E8C4B8D2B7707D8A078076A0710
:1010E000D8A06B076A516B11D8A479EF08F07BEF99
:1010F00008F062EF08F0000E8C25D96E010E8D21EC
:10110000DA6E7151300FDF6E8C4B8D2B7707D8A0C4
:1011100078077FC035F080C036F081C037F082C0DC
:1011200038F083C020F084C021F085C022F086C052
:1011300023F08EC01CF08FC01DF090C01EF091C037
:101140001FF0AEEC0BF01CC039F01DC03AF01EC011
:101150003BF01FC03CF008EC1BF035C07FF036C000
:1011600080F037C081F038C082F08EC00EF08FC0A2
:101170000FF090C010F091C011F0000E126E000E32
:10118000136E200E146E410E156EC3EC0DF00EC0E2
:101190008EF00FC08FF010C090F011C091F00001E0
:1011A0006607D8A067077D4B7E2B73517D5D7E510E
:1011B000800A416E7451800A4158D8B0E2EF08F0BD
:1011C000E4EF08F0F2EF08F08DBFF0EF08F08D517A
:1011D00009E14B0E8C5DD8A0F0EF08F0F2EF08F0BB
:1011E000F0EF07F0000E7E6F4F0E7D6F000E7D2535
:1011F000D96E010E7E21DA6EDF6A000E416E010E9D
:10120000426E8C51415E8D51425A7D5141240E6E89
:101210007E5142200F6E000E106E010E116E8CC0BA
:1012200012F08DC013F070EC1AF000018C517D5D4E
:101230008C6F8D517E598D6F8751D8A422EF09F0A4
:1012400025EF09F0010E26EF09F0000E7D6F7E6B91
:101250008751D8B42EEF09F030EF09F03BEF09F0D9
:101260008C07D8A08D07000E8C25D96E010E8D211C
:10127000DA6E87C0DFFF7D51775F7E51785B60C09B
:101280001CF0000E8C251D6E010E8D211E6E77C088
:101290001FF078C020F087EC19F012001150800B7D
:1012A0001A6E115011241C6E10AE59EF09F05BEF4D
:1012B00009F05CEF09F01C801C50D8B462EF09F013
:1012C00064EF09F079EF09F01C28D8A46AEF09F05F
:1012D0006CEF09F074EF09F0000E0E6E000E0F6E49
:1012E000000E106E000E116E108E000E116E81EF4A
:1012F00009F0000E0E6E000E0F6E000E106E000E46
:10130000116E1550800B1B6E1A501B18D8B48BEF42
:1013100009F08DEF09F08EEF09F01A8C15501524A5
:101320001B6E14AE96EF09F098EF09F099EF09F0F3
:101330001B801B50D8B49FEF09F0A1EF09F0B6EF66
:1013400009F01B28D8A4A7EF09F0A9EF09F0B1EF25
:1013500009F0000E126E000E136E000E146E000ED9
:10136000156E148E000E156EBEEF09F0000E126E93
:10137000000E136E000E146E000E156E1C501B5CDA
:10138000D8B0C5EF09F0C7EF09F0EEEF09F01AACDD
:10139000CCEF09F0CEEF09F0D0EF09F0800E1A1A69
:1013A0001CC01DF01BC01CF01DC01BF00EC01DF0AA
:1013B00012C00EF01DC012F00FC01DF013C00FF0D0
:1013C0001DC013F010C01DF014C010F01DC014F0AB
:1013D00011C01DF015C011F01DC015F0000E1D6EDE
:1013E0001C501BC016F0176A165E000E175A17BE67
:1013F00003EF0AF0175009E11A0E165CD8A003EFAC
:101400000AF005EF0AF03CEF0AF00E500F10101032
:101410001110D8A40EEF0AF011EF0AF0010E12EF2E
:101420000AF0000E1D6E000E0E6E000E0F6E000E06
:10143000106E000E116E1BC01CF045EF0AF01DA0CF
:1014400024EF0AF026EF0AF02CEF0AF0D8901D30B6
:1014500001091D6E2EEF0AF0D8901D320EA033EF59
:101460000AF035EF0AF036EF0AF01D8E1134113212
:1014700010320F320E321C2A1B501C5CD8A043EFD6
:101480000AF045EF0AF01FEF0AF01ABC4AEF0AF023
:101490004CEF0AF08CEF0AF01C50D8A452EF0AF07F
:1014A00054EF0AF05EEF0AF0000E0E6E000E0F6EA3
:1014B000000E106E000E116EADEF0BF012500E26E6
:1014C00013500F22145010221550112211A06BEF4F
:1014D0000AF06DEF0AF019EF0BF01DA072EF0AF0A1
:1014E00074EF0AF07AEF0AF0D8901D3001091D6EF2
:1014F0007CEF0AF0D8901D320EA081EF0AF083EF46
:101500000AF084EF0AF01D8E1134113210320F32BE
:101510000E321C2A19EF0BF012500E5C13500F58AC
:10152000145010581150800A166E1550800A165823
:10153000D8B09DEF0AF09FEF0AF0CAEF0AF00E5004
:10154000125C166E0F501358176E10501458186E08
:1015500011501558196EFF0E16240E6EFF0E17202F
:101560000F6EFF0E1820106EFF0E1920116E800EE8
:101570001A1A1D6C1D50D8A4C0EF0AF0C2EF0AF071
:10158000D2EF0AF0010E0E26000E0F2210221122B9
:10159000D2EF0AF012500E5E13500F5A1450105A28
:1015A0001550115A0E500F1010101110D8A4DBEF67
:1015B0000AF0DDEF0AF012EF0BF01D50D8A4E3EFB4
:1015C0000AF0E5EF0AF012EF0BF0000E0E6E000EBF
:1015D0000F6E000E106E000E116EADEF0BF0D89076
:1015E0000E360F36103611361DAEF9EF0AF0FBEF4E
:1015F0000AF0FCEF0AF00E801DA001EF0BF003EFE4
:101600000BF007EF0BF0D8801D3609EF0BF0D890E8
:101610001D361C50D8B40FEF0BF011EF0BF012EF8A
:101620000BF01C0610AE17EF0BF019EF0BF0EFEFFD
:101630000AF0000E1B6E1DAE20EF0BF022EF0BF038
:101640003AEF0BF01DC016F07F0E1616D8B42BEF34
:101650000BF02DEF0BF031EF0BF0010E1B6E3AEF9C
:101660000BF00EA036EF0BF038EF0BF03AEF0BF06B
:101670002DEF0BF01B50D8B440EF0BF042EF0BF006
:101680006DEF0BF0010E0E26000E0F22102211221C
:1016900011A04DEF0BF04FEF0BF06DEF0BF00EC004
:1016A00016F00FC017F010C018F011C019F019345F
:1016B000193218321732163216C00EF017C00FF05A
:1016C00018C010F019C011F01C28D8B46AEF0BF044
:1016D0006CEF0BF06DEF0BF01C2A1C28D8B473EFE5
:1016E0000BF075EF0BF07DEF0BF01C50D8A47BEFE7
:1016F0000BF07DEF0BF08FEF0BF0000E0E6E000E77
:101700000F6E000E106E000E116E1C50D8A48BEFE1
:101710000BF08DEF0BF08FEF0BF0000E1A6E1CA08C
:1017200094EF0BF096EF0BF099EF0BF0108E9AEF11
:101730000BF0109ED8901C30116E1AAEA2EF0BF079
:10174000A4EF0BF0A5EF0BF0118E0EC00EF00FC042
:101750000FF010C010F011C011F012001F50800BDC
:10176000286E1F501F242E6E1EAEB9EF0BF0BBEF7C
:101770000BF0BCEF0BF02E802E50D8B4C2EF0BF064
:10178000C4EF0BF0D7EF0BF02E28D8A4CAEF0BF064
:10179000CCEF0BF0D4EF0BF0000E1C6E000E1D6EA4
:1017A000000E1E6E000E1F6E1E8EDFEF0BF0000E81
:1017B0001C6E000E1D6E000E1E6E000E1F6E23505E
:1017C000800B281A23502324296E22AEEAEF0BF057
:1017D000ECEF0BF0EDEF0BF029802950D8B4F3EFCC
:1017E0000BF0F5EF0BF008EF0CF02928D8A4FBEF75
:1017F0000BF0FDEF0BF005EF0CF0000E206E000E6D
:10180000216E000E226E000E236E228E10EF0CF061
:10181000000E206E000E216E000E226E000E236E52
:101820002950D8B416EF0CF018EF0CF020EF0CF0A4
:101830002E50D8A41EEF0CF020EF0CF02AEF0CF085
:10184000000E1C6E000E1D6E000E1E6E000E1F6E32
:10185000C2EF0DF022501C02F3CF33F0F4CF34F07E
:1018600033502A6E2B6A2C6A2D6A34502F6E306AE0
:10187000316A326A21501D02F3CF33F0F4CF34F0D5
:1018800033502A26000E2B222C222D2234502F26B4
:10189000000E30223122322220501E02F3CF33F0CC
:1018A000F4CF34F033502A26000E2B222C222D2286
:1018B00034502F26000E3022312232222CC02DF03F
:1018C0002BC02CF02AC02BF02A6A20501D02F3CF27
:1018D00033F0F4CF34F033502A2634502B22000E4C
:1018E0002C22000E2D2221501C02F3CF33F0F4CF16
:1018F00034F033502A2634502B22000E2C22000EB6
:101900002D222CC02DF02BC02CF02AC02BF02A6ADF
:1019100020501C02F3CF33F0F4CF34F033502A269A
:1019200034502B22000E2C22000E2D2222501D029C
:10193000F3CF33F0F4CF34F033502F26345030222D
:10194000000E3122000E322221501E02F3CF33F05E
:10195000F4CF34F033502F2634503022000E312291
:10196000000E322222501E02F3CF33F0F4CF34F0B7
:101970003350246E3450256E266A276A26C027F01D
:1019800025C026F024C025F0246A24502F26255097
:10199000302226503122275032222AC024F02BC078
:1019A00025F02CC026F02DC027F0190EDDEF0CF02D
:1019B000D8902732263225322432E82ED8EF0CF088
:1019C00024502F26255030222650312227503222F3
:1019D0002CC02DF02BC02CF02AC02BF02A6A2950E5
:1019E0002EC024F0256A2426000E2522820E2424EF
:1019F000336EFF0E2520346E13EF0DF0D8902F3686
:101A00003036313632362DAE08EF0DF00AEF0DF0DC
:101A10000BEF0DF02F80D8902A362B362C362D3632
:101A20003306D8A0340631AE18EF0DF01AEF0DF0E2
:101A3000FEEF0CF0000E296E2DAE21EF0DF023EF1E
:101A40000DF047EF0DF0FF0E2A14246EFF0E2B143D
:101A5000256EFF0E2C14266E7F0E2D14276E24503B
:101A6000251026102710D8B438EF0DF03AEF0DF0FE
:101A70003EEF0DF0010E296E47EF0DF02FA043EF62
:101A80000DF045EF0DF047EF0DF03AEF0DF0295056
:101A9000D8B44DEF0DF04FEF0DF073EF0DF0010ED8
:101AA0002F26000E30223122322232A05AEF0DF0C2
:101AB0005CEF0DF073EF0DF02FC024F030C025F077
:101AC00031C026F032C027F02734273226322532A3
:101AD000243224C02FF025C030F026C031F027C0BA
:101AE00032F0334A342A34BE7EEF0DF0345008E130
:101AF0003328D8A07EEF0DF080EF0DF08AEF0DF0C7
:101B0000000E2F6E000E306E800E316E7F0E326E24
:101B1000B8EF0DF034BE97EF0DF0345006E133040A
:101B2000D8B095EF0DF097EF0DF0A3EF0DF0000E8C
:101B30002F6E000E306E000E316E000E326E000EF3
:101B4000286EB8EF0DF033C02EF0FF0E2F16FF0EEB
:101B500030167F0E3116000E32162EA0B2EF0DF0A9
:101B6000B4EF0DF0B5EF0DF0318ED8902E30326E0F
:101B7000285032122FC01CF030C01DF031C01EF0B2
:101B800032C01FF012001150800B1E6E1150112434
:101B9000256E10AECEEF0DF0D0EF0DF0D1EF0DF0C1
:101BA00025802550D8B4D7EF0DF0D9EF0DF0EEEF2A
:101BB0000DF02528D8A4DFEF0DF0E1EF0DF0E9EFEF
:101BC0000DF0000E0E6E000E0F6E000E106E000E69
:101BD000116E108E000E116EF6EF0DF0000E0E6EEF
:101BE000000E0F6E000E106E000E116E1550800B61
:101BF0001E1A15501524266E14AE01EF0EF003EFD9
:101C00000EF004EF0EF026802650D8B40AEF0EF046
:101C10000CEF0EF021EF0EF02628D8A412EF0EF0F4
:101C200014EF0EF01CEF0EF0000E126E000E136E8D
:101C3000000E146E000E156E148E000E156E29EF38
:101C40000EF0000E126E000E136E000E146E000EDB
:101C5000156E1250131014101510D8A432EF0EF098
:101C600034EF0EF04CEF0EF0000E0E6E000E0F6E05
:101C7000000E106E000E116E800E10127F0E1112EB
:101C80001E5011120EC00EF00FC00FF010C010F059
:101C900011C011F08FEF0FF02550D8A452EF0EF0C5
:101CA00054EF0EF05EEF0EF0000E0E6E000E0F6E93
:101CB000000E106E000E116E8FEF0FF0265025C033
:101CC00016F0176A165E000E175A7F0E16241F6E46
:101CD000000E1720206E0EC01AF00FC01BF010C0AF
:101CE0001CF011C01DF0000E0E6E000E0F6E000EE7
:101CF000106E000E116E000E216E000E226E000E90
:101D0000236E000E246E000E266EBFEF0EF02650DE
:101D1000D8B48DEF0EF08FEF0EF0A6EF0EF0D89046
:101D20001A361B361C361D36D8900E360F36103636
:101D3000113624AE9EEF0EF0A0EF0EF0A1EF0EF0E4
:101D40000E80D890213622362336243612501A5C63
:101D500013501B5814501C5815501D58D8A0B3EFE1
:101D60000EF0B5EF0EF0BEEF0EF0248C12501A5E9E
:101D700013501B5A14501C5A15501D5A262A190E5E
:101D80002664C5EF0EF0C7EF0EF087EF0EF01A5085
:101D90001B101C101D10D8B4D0EF0EF0D2EF0EF0B7
:101DA000EAEF0EF02180EAEF0EF0D8900E360F36F3
:101DB0001036113624AEDFEF0EF0E1EF0EF0E2EF59
:101DC0000EF00E80D89021362236233624361F0698
:101DD000D8A0200610AEEFEF0EF0F1EF0EF0D5EF29
:101DE0000EF0000E266E24AEF8EF0EF0FAEF0EF0B5
:101DF0001EEF0FF0FF0E2114166EFF0E2214176E49
:101E0000FF0E2314186E7F0E2414196E165017102F
:101E100018101910D8B40FEF0FF011EF0FF015EFE5
:101E20000FF0010E266E1EEF0FF00EA01AEF0FF04E
:101E30001CEF0FF01EEF0FF011EF0FF02650D8B48B
:101E400024EF0FF026EF0FF04AEF0FF0010E0E26F1
:101E5000000E0F221022112211A031EF0FF033EFEC
:101E60000FF04AEF0FF00EC016F00FC017F010C0C1
:101E700018F011C019F0193419321832173216320D
:101E800016C00EF017C00FF018C010F019C011F0F6
:101E90001F4A202A20BE55EF0FF0205008E11F28CE
:101EA000D8A055EF0FF057EF0FF062EF0FF0000ED4
:101EB000206E1F68000E0E6E000E0F6E000E106E6C
:101EC000000E116E20BE6FEF0FF0205006E11F04D0
:101ED000D8B06DEF0FF06FEF0FF07DEF0FF0000E49
:101EE000206E000E1F6E000E0E6E000E0F6E000EA6
:101EF000106E000E116E000E1E6E1FC025F025A084
:101F000084EF0FF086EF0FF089EF0FF0108E8AEF5D
:101F10000FF0109ED8902530116E40EF0EF0120099
:101F200000019351D96EDA6ADFCFF6FF080EF76E23
:101F30000800F550250AD8A4A0EF0FF0A2EF0FF08B
:101F40001BEF11F09351D96EDA6ADF2A000EE06FB1
:101F5000000EDF6FDFC0F3F0E169E2699351D96EE3
:101F6000DA6ADFCFF6FF080EF76E0800F5502E0A8A
:101F7000D8A4BDEF0FF0BFEF0FF0CDEF0FF09351EE
:101F8000D96EDA6ADF2A93C014F094C015F05FECC2
:101F900018F014C0E1F015C0E2F000019351D96EC1
:101FA000DA6ADF509B6F9BC0F6FF080EF76E0800E1
:101FB000F550640AD8B4DFEF0FF0E1EF0FF0EFEF68
:101FC0000FF09BC0F6FF080EF76E0800F550690A87
:101FD000D8A4EDEF0FF0EFEF0FF00AEF10F09451EF
:101FE000D96EDA6A020EDF26DF5CD96EDA6ADECFDE
:101FF00096F0DECF97F09351D96EDA6A9B29DF6EA7
:1020000092C024F096C025F097C026F0D2EC13F0D1
:102010002CEF11F0000E956F9351D96EDA6ADFCF75
:10202000F6FF080EF76E0800F550730AD8A41BEFF0
:1020300010F01DEF10F025EF10F09351D96EDA6A11
:10204000DF2A010E956F67EF10F09351D96EDA6AAF
:10205000DFCFF6FF080EF76E0800F5506C0AD8A423
:1020600034EF10F036EF10F067EF10F09351D96EA7
:10207000DA6ADF50436E010E432643C0F6FF080EB6
:10208000F76E0800F5506C0AD8A449EF10F04BEF3A
:1020900010F067EF10F09351D96EDA6ADF50436E9B
:1020A000020E432643C0F6FF080EF76E0800F550F7
:1020B000730AD8A45EEF10F060EF10F067EF10F035
:1020C0009351D96EDA6A030EDF2621EF10F0955195
:1020D000D8B46DEF10F06FEF10F081EF10F092C0F8
:1020E00016F09451D96EDA6A020EDF26DF5CD96EE3
:1020F000DA6ADECF17F0DECF18F012EC15F02CEF15
:1021000011F09351D96EDA6ADF509B6F9BC0F6FFD6
:10211000080EF76E0800F5CF9AF09AEF10F09B2B9F
:10212000A9EF10F06C0E9A6FA9EF10F0000E9A6FE5
:10213000A9EF10F09A514C0AD8B48FEF10F02A0A88
:10214000D8B492EF10F00A0AD8B48FEF10F096EFDF
:1021500010F09BC0F6FF080EF76E0800F550660AF7
:10216000D8A4B5EF10F0B7EF10F014EF11F0E1EFD5
:1021700010F09451D96EDA6ADFCF43F0040EDF26F7
:102180004350D96EDA6ADECF96F0DECF97F0DECF1D
:1021900098F0DECF99F0ECEF10F09451D96EDA6A36
:1021A000DFCF43F0040EDF264350D96EDA6ADECF6C
:1021B00096F0DECF97F0DECF98F0DECF99F0ECEF1F
:1021C00010F09A514C0AD8B4CDEF10F0200AD8B4D0
:1021D000B9EF10F0ECEF10F09351D96EDA6A9B2949
:1021E000DF6E08EF11F092C060F096C061F097C00A
:1021F00062F098C063F099C064F09BC0F6FF080ECF
:10220000F76E0800F5CF65F05AEC04F02CEF11F0F2
:102210009BC0F6FF080EF76E0800F550660AD8B4AA
:10222000F3EF10F014EF11F000019351D96EDA6A58
:10223000DF2A2CEF11F09351D96EDA6ADFCFF6FF67
:10224000080EF76E0800F5500E6E0F6A92C010F07F
:102250000AEC18F014EF11F01200D7C037F0D8C014
:1022600038F0D9C039F0DAC03AF027C037F028C0CA
:1022700038F029C039F02AC03AF0810E2B6EFF0EDB
:102280002C6E37C02DF038C02EF039C02FF03AC078
:1022900030F0180E51EF11F0D89030322F322E322C
:1022A0002D32E82E4CEF11F02D502B24356E000E00
:1022B0002C20366E36BE66EF11F0365009E1170E4F
:1022C000355CD8A066EF11F068EF11F072EF11F0F5
:1022D00027C027F028C028F029C029F02AC02AF0FA
:1022E00035EF12F036BE77EF11F079EF11F0E9EF2C
:1022F00011F035C02BF0FF0E2C6EFF0E2D6E7F0EF1
:102300002E6E000E2F6E2B6688EF11F090EF11F0FD
:102310002F342F322E322D322C322B2E83EF11F010
:102320002CC031F02DC032F02EC033F02FC034F06D
:10233000315037142B6E325038142C6E3350391400
:102340002D6E34503A142E6E2B502C102D102E1052
:10235000D8A4ADEF11F0AFEF11F0B1EF11F068EFCD
:1023600011F037C02BF038C02CF039C02DF03AC036
:102370002EF0200EC1EF11F0D8902E322D322C32DB
:102380002B32E82EBCEF11F02B502C102D102E10FC
:10239000D8B4CDEF11F0CFEF11F0D7EF11F03150ED
:1023A0003726325038223350392234503A22311CE9
:1023B0002B6E321C2C6E331C2D6E341C2E6E2B504B
:1023C00037162C5038162D5039162E503A162DEF40
:1023D00012F037C02BF038C02CF039C02DF03AC0C5
:1023E0002EF0200EF9EF11F0D8902E322D322C3233
:1023F0002B32E82EF4EF11F02B502C102D102E1054
:10240000D8A405EF12F007EF12F011EF12F0000E52
:10241000376E000E386E000E396E000E3A6E2DEFDC
:1024200012F0D89037342B6E38342C6E39342D6E30
:102430003A342E6E2B502C102D102E10D8B423EFC2
:1024400012F025EF12F02DEF12F0000E376E000E95
:10245000386E800E396EBF0E3A6E37C027F038C026
:1024600028F039C029F03AC02AF01200166E165032
:10247000D8B43DEF12F03FEF12F061EF12F011BE51
:1024800046EF12F044EF12F061EF12F00EC012F0BE
:102490000FC013F010C014F011C015F0121E131E5F
:1024A000141E151E122A000E13221422152212C009
:1024B00018F013C019F014C01AF015C01BF069EF22
:1024C00012F00EC018F00FC019F010C01AF011C0B1
:1024D0001BF00E500F1010101110D8A472EF12F054
:1024E00074EF12F07EEF12F0000E0E6E000E0F6E03
:1024F000000E106E000E116E0FEF13F0960E176E99
:1025000088EF12F0172AD8901B321A32193218327B
:10251000000E1814126E000E1914136E000E1A1409
:10252000146EFE0E1B14156E12501310141015109D
:10253000D8A49DEF12F09FEF12F082EF12F0ADEFF2
:1025400012F0172A010E1826000E19221A221B2239
:10255000D8901B321A3219321832000E1814126E2B
:10256000000E1914136E000E1A14146EFF0E1B14B5
:10257000156E1250131014101510D8A4C2EF12F0DB
:10258000C4EF12F0A1EF12F0CCEF12F01706D890C2
:10259000183619361A361B361ABED1EF12F0D3EFA1
:1025A00012F0DBEF12F0020E1760D9EF12F0DBEF42
:1025B00012F0C6EF12F017B0E0EF12F0E2EF12F0F7
:1025C000E3EF12F01A9ED890173217C012F0136A78
:1025D000146A156A12C015F0146A136A126A12504E
:1025E00018121350191214501A1215501B121650AB
:1025F000D8B4FDEF12F0FFEF12F007EF13F011BEA9
:1026000006EF13F004EF13F007EF13F01B8E18C062
:102610000EF019C00FF01AC010F01BC011F012001C
:10262000CDEC1CF000EC19F035C0D3F036C0D4F07E
:1026300037C0D5F038C0D6F0D3C060F0D4C061F058
:10264000D5C062F0D6C063F095EC16F060C0CFF054
:1026500061C0D0F0090EFEEC1CF0DEEC1CF014C0E2
:10266000D1F015C0D2F07F0E106E1050D8A4080E15
:10267000116EBAEC19F0B70E0001A06F940EA16FA5
:10268000D3C0A2F0D4C0A3F0D5C0A4F0D6C0A5F0AA
:10269000AC0EA66FA651D8A4080EA76FC6EC1BF00F
:1026A000B70E106E116ABAEC19F06C0E106E105065
:1026B000D8A4080E116EBAEC19F0CB0E0001A06F71
:1026C000B00EA16FCFC0A2F0D0C0A3F0C6EC1BF03B
:1026D000CB0E106E116ABAEC19F0570E106E105036
:1026E000D8A4080E116EBAEC19F0C10E0001A06F4B
:1026F0009B0EA16FD1C0A2F0D2C0A3F0C6EC1BF01C
:10270000C10E106E116ABAEC19F0A80E106E1050BE
:10271000D8A4080E116EBAEC19F08CB092EF13F039
:1027200095EF13F0010E96EF13F0000EFF0A000173
:10273000B56F8C50B519FE0BB5198C6E8CB2A3EF2A
:1027400013F0A6EF13F0010EA7EF13F0000EFF0A2F
:10275000B56FB5478C50B519FD0BB5198C6E8CB49F
:10276000B4EF13F0B7EF13F0010EB8EF13F0000E53
:10277000FF0AB56FB547B5478C50B519FB0BB519B6
:102780008C6E0B0E0001B66F260EB56F5D0EE82E37
:10279000FED7B52FFCD7B62FFAD700D012EF13F023
:1027A00056EF00F026BED7EF13F0DAEF13F0010E6C
:1027B000DBEF13F0000E2D6E0001E2BFE4EF13F02B
:1027C000E2EF13F0EAEF13F0000E2C6E010E2B6E09
:1027D000EEEF13F0E1C02BF0E2C02CF0DFC029F0E7
:1027E000E0C02AF02D50D8B4F8EF13F0FAEF13F050
:1027F00011EF14F02906D8A02A062D50D8A403EF13
:1028000014F005EF14F00BEF14F0000E286E2B0EF1
:10281000276E0FEF14F0000E286E2D0E276E27C0C6
:102820002DF0000E2F6E4F0E2E6E000E01014F6F19
:102830004AEF14F02E06D8A02F06000E2E24D96ED3
:10284000010E2F20DA6E25C00EF026C00FF0000E0C
:10285000116E0A0E106E5DEC17F00EC014F00FC072
:1028600015F01AEC1CF01450300FDF6E2B06D8A0B8
:102870002C062906D8A02A0625C00EF026C00FF087
:10288000000E116E0A0E106EFBEC16F00EC025F055
:102890000FC026F02FBE55EF14F02F5008E12E0484
:1028A000D8A055EF14F057EF14F06DEF14F0255049
:1028B0002610D8A45EEF14F060EF14F01AEF14F0B5
:1028C0002CBE6DEF14F02C5006E12B04D8B06BEF4A
:1028D00014F06DEF14F01AEF14F02D50D8B473EF1C
:1028E00014F075EF14F080EF14F02E06D8A02F0628
:1028F000000E2E24D96E010E2F20DA6E2DC0DFFFC0
:1029000024C01CF0000E2E241D6E010E2F201E6E02
:1029100029C01FF02AC020F087EC19F012001034F3
:102920001134176E1750D8A498EF14F09AEF14F0E2
:10293000A4EF14F0000E0E6E000E0F6E000E106E5F
:10294000000E116E11EF15F00EC012F00FC013F053
:1029500010C014F011C015F0200EB4EF14F0D89090
:102960001532143213321232E82EAFEF14F0125037
:10297000166E108EFF0E0E16FF0E0F16FF0E10169F
:10298000000E1116960E175E17BECBEF14F0C9EFAE
:1029900014F0E1EF14F01750800A970FD8B0D3EF7E
:1029A00014F0D5EF14F0D7EF14F09AEF14F0D8909C
:1029B000113210320F320E32173ED7EF14F0F9EF0A
:1029C00014F01F0E1764E7EF14F0E9EF14F0F1EFC5
:1029D00014F09AEF14F0D8900E360F3610361136E8
:1029E00017061750D8A4F7EF14F0F9EF14F0EBEF37
:1029F00014F01650D8B4FFEF14F001EF15F009EF02
:102A000015F0111E101E0F1E0E6C000E0F2210224C
:102A100011220EC00EF00FC00FF010C010F011C048
:102A200011F0120017C01DF018C01EF01D501E102E
:102A3000D8A41DEF15F01FEF15F025EF15F08D0E42
:102A40001D6E1D50D8A4080E1E6E000E206E000EC6
:102A50001F6E2DEF15F01F4A202A1F501D24196EDE
:102A600020501E201A6E19C0F6FF1AC0F7FFF86A30
:102A7000070EF76403D00800F55005D0F6CFE9FF44
:102A8000F7CFEAFFEF500009D8A449EF15F04BEF5C
:102A900015F02BEF15F00001E2BF51EF15F053EFE9
:102AA00015F066EF15F01F50E15DE251800A196ED6
:102AB0002050800A1958D8B060EF15F062EF15F079
:102AC00066EF15F0E1C01FF0E2C020F01FC01BF060
:102AD00020C01CF086EF15F01DC0F6FF1EC0F7FFEA
:102AE000F86A070EF76403D00800F55005D0F6CF5A
:102AF000E9FFF7CFEAFFEF50196E19500E6E0F6A1B
:102B000016C010F00AEC18F01D4A1E2A1B06D8A0A9
:102B10001C061B2806E11C28D8A491EF15F093EFA2
:102B200015F06CEF15F01200000E35143D6E000E1E
:102B300036143E6E800E37143F6E7F0E3814406E92
:102B40003D503E103F104010D8A4A9EF15F0ABEF58
:102B500015F0B3EF15F0000E356E000E366E000E58
:102B6000376E000E386E000E39143D6E000E3A14AA
:102B70003E6E800E3B143F6E7F0E3C14406E3D5007
:102B80003E103F104010D8A4C8EF15F0CAEF15F062
:102B9000D2EF15F0000E396E000E3A6E000E3B6E4D
:102BA000000E3C6E38AED7EF15F0D9EF15F0E2EF1E
:102BB00015F0356C361ED8B0362A371ED8B0372AF5
:102BC000800E38563CAEE7EF15F0E9EF15F0F2EF66
:102BD00015F0396C3A1ED8B03A2A3B1ED8B03B2AC1
:102BE000800E3C56000E351A000E361A000E371AAB
:102BF000800E381A000E391A000E3A1A000E3B1ACF
:102C0000800E3C1A3950355C3A5036583B50375894
:102C10003C503858D8B00FEF16F011EF16F014EF03
:102C200016F0D89015EF16F0D8801200DBC018F01F
:102C3000DCC019F0DDC01AF0DEC01BF00EC018F0C9
:102C40000FC019F010C01AF011C01BF018C012F01C
:102C500019C013F01AC014F01BC015F0180E36EF8F
:102C600016F0D8901532143213321232E82E31EFAA
:102C700016F01250166E176A16501710D8A443EFAC
:102C800016F045EF16F065EF16F0D8901834126E76
:102C90001934136E1A34146E1B34156E125013103F
:102CA00014101510D8A457EF16F059EF16F05FEF77
:102CB00016F0000E0F6E020E0E6E94EF16F0000E60
:102CC0000F6E030E0E6E94EF16F016281710D8A490
:102CD0006CEF16F06EEF16F090EF16F018C012F0D1
:102CE00019C013F01AC014F01BC015F0090ED890CB
:102CF0001236133614361536E82E77EF16F01250CA
:102D0000131014101510D8B488EF16F08BEF16F0CE
:102D1000010E8CEF16F0000E0E6E0F6A94EF16F097
:102D2000000E0F6E040E0E6E1200000E356E000EB9
:102D3000366EC80E376E410E386E60C039F061C015
:102D40003AF062C03BF063C03CF094EC15F0D8A0C0
:102D5000ACEF16F0AEEF16F0B4EF16F0000E426EC8
:102D60000A0E416EF0EF16F0000E356E000E366E54
:102D7000C80E376E410E386E60C039F061C03AF04F
:102D800062C03BF063C03CF094EC15F0D8B0CBEFE0
:102D900016F0CDEF16F0ECEF16F0000E356E000ECB
:102DA000366EF00E376E410E386E60C039F061C07D
:102DB0003AF062C03BF063C03CF094EC15F0D8A050
:102DC000E4EF16F0E6EF16F0ECEF16F0000E426EB0
:102DD000320E416EF0EF16F0000E426E5A0E416E4A
:102DE00041C00EF042C00FF0AAEC1BF041C060F0F1
:102DF00042C061F01200000E136E11BE04EF17F016
:102E000002EF17F00AEF17F0106C111ED8B0112A5C
:102E1000010E136E0FBE11EF17F00FEF17F017EF43
:102E200017F00E6C0F1ED8B00F2A010E131A000EE9
:102E3000156E000E146E10501110D8B422EF17F05A
:102E400024EF17F04CEF17F0010E126E2CEF17F075
:102E5000D89010361136122A11AE31EF17F033EF39
:102E600017F028EF17F0D8901436153610500E5C76
:102E700011500F58D8A03FEF17F041EF17F046EF71
:102E800017F010500E5E11500F5A1480D890113266
:102E90001032122E33EF17F01350D8B452EF17F050
:102EA00054EF17F058EF17F0146C151ED8B0152A10
:102EB00014C00EF015C00FF01200000E136E0FBEFE
:102EC00066EF17F064EF17F06CEF17F00E6C0F1E43
:102ED000D8B00F2A010E136E11BE73EF17F071EF09
:102EE00017F077EF17F0106C111ED8B0112A1050A0
:102EF0001110D8B47EEF17F080EF17F0A4EF17F0A1
:102F0000010E126E88EF17F0D89010361136122A83
:102F100011AE8DEF17F08FEF17F084EF17F0105010
:102F20000E5C11500F58D8A098EF17F09AEF17F0D9
:102F30009EEF17F010500E5E11500F5AD8901132BC
:102F40001032122E8FEF17F01350D8B4AAEF17F0EB
:102F5000ACEF17F0B0EF17F00E6C0F1ED8B00F2AC1
:102F60000EC00EF00FC00FF01200000E0E14166E01
:102F7000000E0F14176E800E1014186E7F0E1114B1
:102F8000196E1650171018101910D8A4CAEF17F0A0
:102F9000CCEF17F0D4EF17F0000E0E6E000E0F6E90
:102FA000000E106E000E116E000E1214166E000E42
:102FB0001314176E800E1414186E7F0E1514196EEC
:102FC0001650171018101910D8A4E9EF17F0EBEFEE
:102FD00017F0F3EF17F0000E126E000E136E000ED6
:102FE000146E000E156E12500E180FE113500F18CC
:102FF0000CE11450101809E115501118D8B403EF62
:1030000018F005EF18F008EF18F0D89009EF18F055
:10301000D88012001050D8B410EF18F012EF18F04A
:103020001AEF18F01050D8A418EF18F01AEF18F093
:103030001FEF18F00E50FBEC1DF05EEF18F0105073
:10304000D96EDA6A0A0ED926DE50DE10D8B42BEF1C
:1030500018F02DEF18F046EF18F01050D96EDA6A1C
:103060000A0ED9261050E16EE26A030EE126DE5008
:10307000E65CE650800A156EDE50800A1558D8B01E
:1030800044EF18F046EF18F05EEF18F01050D96ECC
:10309000DA6A030ED926DF50116E1050D96EDA6A43
:1030A000DF501124D96EDA6A0EC0DFFF1050D96EDE
:1030B000DA6A030ED926DE2A000EDD221200000E87
:1030C000186E000E176E1450D96EDA6ADFCFF6FF55
:1030D000080EF76E0800F5502A0AD8A472EF18F00F
:1030E00074EF18F09AEF18F01450D96EDA6ADF2AEC
:1030F0001550D96EDA6A020EDF26DF5CD96EDA6A05
:10310000DECF17F0DECF18F0ADEF18F017C00EF0DD
:1031100018C00FF0000E116E0A0E106EBAEC1CF003
:1031200016500E24176E000E0F20186E1450D96E14
:10313000DA6ADF2A1450D96EDA6ADFCFF6FF080E9A
:10314000F76E0800F550D00F166E090E1664ABEF3F
:1031500018F0ADEF18F086EF18F017C014F018C093
:1031600015F01200F7EC1DF064EC1DF00009D8B466
:10317000BCEF18F0BEEF18F0CEEF18F050EC1DF0D9
:103180000009D8B4C6EF18F0C8EF18F0CEEF18F069
:10319000050E516E010E506EE6EF18F05AEC1DF060
:1031A0000009D8B4D6EF18F0D8EF18F0E6EF18F011
:1031B00050EC1DF00009D8B4E0EF18F0E2EF18F081
:1031C000E6EF18F0050E516E020E506E5150020DD2
:1031D000F350450F036E03C0F6FF080EF76E02D8DA
:1031E000FEEF18F00500FA6E0900F550FD6E0900BB
:1031F000F550FE6EF850FF6EFA501200516E12003C
:10320000000E4CEC1BF00EC041F00FC042F041C06C
:103210000EF042C00FF0106A116A000E36EC12F088
:103220000EC01CF00FC01DF010C01EF011C01FF02A
:103230000A0E206E280E216EA00E226E3B0E236E0B
:10324000AEEC0BF01CC039F01DC03AF01EC03BF0D4
:103250001FC03CF039C01CF03AC01DF03BC01EF04E
:103260003CC01FF0000E206E000E216EC80E226EB4
:10327000420E236EAEEC0BF01CC03DF01DC03EF0C4
:103280001EC03FF01FC040F03DC035F03EC036F0DC
:103290003FC037F040C038F01200040E016E6EECF3
:1032A0001DF00009D8B457EF19F059EF19F083EF6A
:1032B00019F04D504E10D8B460EF19F062EF19F0CC
:1032C0006EEF19F0F3EC1DF04BC0D9FF4CC0DAFFE4
:1032D000DF6E4B4A4C2A4D06D8A04E064D504E107C
:1032E000D8B475EF19F077EF19F07BEF19F0E2EC35
:1032F0001DF085EF19F0EFEC1DF0DFEC1DF0070E6F
:10330000016E85EF19F0F1EC1DF00150120020BEA6
:103310008EEF19F08CEF19F092EF19F0000E206E7D
:10332000000E1F6E000E236E000E226EA2EF19F02B
:10333000000E0F6E200E0E6E1CC010F00AEC18F07E
:10334000224A232A1F50225C2350800A216E2050DB
:10335000800A2158D8A0AFEF19F0B1EF19F098EF1B
:1033600019F01DC016F01EC017F01CC018F06DEC4F
:103370001BF01200D0EF19F010C0F6FF11C0F7FFDC
:10338000F86A070EF76403D00800F55005D0F6CFB1
:10339000E9FFF7CFEAFFEF50EFEC1CF0104A112ADB
:1033A00010C0F6FF11C0F7FFF86A070EF76403D0EC
:1033B0000800F55005D0F6CFE9FFF7CFEAFFEF5050
:1033C0000009D8A4E6EF19F0E8EF19F0BCEF19F006
:1033D0001200060E516E030E506EF9EC1DF05150A6
:1033E000020DF350450F036E03C0F6FF080EF76E93
:1033F00002D807EF1AF00500FA6E0900F550FD6ECD
:103400000900F550FE6EF850FF6EFA501200516E32
:1034100002D816EF1AF005000001FA6EE551FD6EB4
:10342000E651FE6EF850FF6EFA501200120049503D
:103430004A10D8B41EEF1AF020EF1AF030EF1AF04D
:103440004906D8A04A0647C0D9FF48C0DAFF474A14
:10345000482ADF50D2EC1DF0030E026E43EF1AF043
:103460004F50D8B436EF1AF038EF1AF040EF1AF098
:10347000000E4F6EEDEC1DF0010E026E43EF1AF0E0
:1034800090EC1DF0026E0250120011BE4AEF1AF0CD
:103490004CEF1AF056EF1AF00EC00EF00FC00FF0FE
:1034A00010C010F011C011F06FEF1AF00EC012F042
:1034B0000FC013F010C014F011C015F0121E131E2F
:1034C000141E151E122A000E13221422152212C0D9
:1034D0000EF013C00FF014C010F015C011F0120060
:1034E00010C017F011C018F00EC015F00FC016F084
:1034F0008AEF1AF017C0D9FF18C0DAFFDF50146E38
:10350000174A182A15C0D9FF16C0DAFF14C0DFFF0A
:10351000154A162A1206D8A01306122806E1132807
:10352000D8A495EF1AF097EF1AF07AEF1AF012007C
:103530007DEC1CF00009D8A4A0EF1AF0A2EF1AF05D
:10354000BDEF1AF0010E446E0FC045F010C046F0FA
:10355000000E4F6E11C047F0486A12C049F013C008
:103560004AF0000E4B6E000E4C6E000E4E6E000EBA
:103570004D6E000E506EA2EC1DF012007DEC1CF0A2
:103580000009D8A4C6EF1AF0C8EF1AF0E3EF1AF05A
:10359000010E446E0FC045F010C046F0000E4F6E95
:1035A00011C04BF04C6A12C04DF013C04EF0000E2B
:1035B000476E000E486E000E4A6E000E496E000EF9
:1035C000506EBBEC1DF01200000E896E030E8A6E69
:1035D000000E8B6E000E8C6E000E8D6E92689368DE
:1035E000B50E946EF80E956E870E966E2F0E0F0127
:1035F0005B6F3C0E5C6F040E5D6FF80E5E6F070E26
:103600005F6F8568000E866E000E876EF286120070
:10361000000E391A000E3A1A000E3B1A800E3C1AA0
:1036200035C00EF036C00FF037C010F038C011F0C2
:1036300039C012F03AC013F03BC014F03CC015F092
:103640004EEC09F00EC035F00FC036F010C037F068
:1036500011C038F012009DC09FF038EF1BF09CC0E5
:1036600092F09F0E0001936F9EC094F090EC0FF0CB
:103670009FC0F6FF080EF76E0800F5500009D8A4A9
:1036800044EF1BF046EF1BF02FEF1BF0000E000184
:103690009D6F000E9C6F1200126E12C010F010464B
:1036A0001046C2501018830B1018C26EC280050E4F
:1036B000E82EFED70000C282C2B261EF1BF063EFBA
:1036C0001BF05CEF1BF0C450116E106AC350102445
:1036D0000E6E000E11200F6E1200000E1B6E000EFB
:1036E0001A6E7CEF1BF019C00EF00F6A18C010F0B4
:1036F0000AEC18F01A4A1B2A1A501624D96E1B50CD
:103700001720DA6EDF50196E1950D8A48AEF1BF01B
:103710008CEF1BF073EF1BF012000EC012F00FC005
:1037200013F0102A1004116E11C0F6FF080EF76E88
:1037300012C0D9FF13C0DAFF124A132A0800F5CFCE
:10374000DFFFDF50D8A4A7EF1BF0A9EF1BF091EF2C
:103750001BF01200FF0E0E16030E0F160EC010F017
:103760000FC011F0D89011321032D89011321032AF
:103770001050906E0EC010F0030E1016103AF00E9E
:1037800010169750CF0B1010976E1200A20E00016A
:10379000A86FA0C0A9F0000EAD6F000EAC6F000EB8
:1037A000B46F000EB36FA90E9C6FA1C09DF0A80E60
:1037B0009E6F2BEC1BF00001A051AC25D96EDA6A8C
:1037C000DF6A12000E500F1010101110D8B4EBEF7A
:1037D0001BF0EDEF1BF0F5EF1BF0000E0E1A000EC4
:1037E0000F1A000E101A800E111A0EC00EF00FC024
:1037F0000FF010C010F011C011F01200480EB86E9A
:10380000900EAB6E260EAC6ECF0EAF6E000EB06E8D
:10381000000E0E6E000E0F6E36EC1DF0000E0E6EDA
:10382000000E0F6E28EC1DF0000E0001EC6F000E74
:10383000EB6F120015BE1FEF1CF021EF1CF027EFFD
:103840001CF014C014F015C015F033EF1CF014C0B8
:1038500016F015C017F0161E171E164A172A16C0A6
:1038600014F017C015F01200D09EF292F18C000EE9
:103870000E6E000E0F6EB6EC1DF0F090F18A000E89
:103880000E6E000E0F6EB1EC1DF0F092F188000E7E
:103890000E6E000E0F6EACEC1DF0120001EE00F08B
:1038A000500EEE6AE806FDE100EED7F01D0EEE6A5E
:1038B000E806FDE100EE44F00E0EEE6AE806FDE1DA
:1038C00052905292000EF86E000110EF13F0000EAD
:1038D000446E000E466E4568000E476E000E486E40
:1038E000000E4B6E000E4C6E000E516EF7EC1DF08C
:1038F000F9EC1DF0E5EC1DF01200010E0E6E4450C7
:10390000D8A485EF1CF087EF1CF090EF1CF0C7B631
:103910008CEF1CF08EEF1CF090EF1CF0000E0E6E82
:103920000E501200000E0E6E9EA899EF1CF09BEF39
:103930001CF0A4EF1CF0ACAAA0EF1CF0A2EF1CF04E
:10394000A4EF1CF0010E0E6E0E501200C00EC76EDA
:10395000080EC66E000EC56E000ECB6E130EC86E3E
:10396000D6EC1DF0F80E0E6E3B0E0F6E1AEC1DF02D
:10397000C68A12000E501002F3CF12F0F4CF13F0EB
:103980000E501102F35013260F501002F35013265D
:1039900012C00EF013C00FF0120078EC1DF0E4EC32
:1039A0001AF044EC1DF0FEEC1BF0A6EC1CF081ECD0
:1039B0001DF00CEC1DF034EC1CF01200000E106E2B
:1039C000170E0F6E160E116E000E136E020E126E93
:1039D000BEEC1AF016C014F017C015F012000F6EEE
:1039E00092EC1CF00009D8B4F8EF1CF0FAEF1CF0D0
:1039F000F0EF1CF00F50CAEC1DF01200146E000E18
:103A0000106E160E0F6E140E116E000E136E010E58
:103A1000126E98EC1AF012003F0EBB6E000EBC6ED8
:103A20009E921C0EBA6E000E0E6E000E0F6EA7EC6C
:103A30001DF012000E500F10D8B421EF1DF023EF2F
:103A40001DF027EF1DF00EC0E5F00FC0E6F01200EC
:103A50000E500F10D8B42FEF1DF031EF1DF035EFE1
:103A60001DF00EC0E7F00FC0E8F012000E500F106E
:103A7000D8B43DEF1DF03FEF1DF043EF1DF00EC039
:103A8000E9F00FC0EAF01200000EC16E000EC06E29
:103A9000000EC36E000EC46E030EC26E9E9C12001A
:103AA000C5BC55EF1DF058EF1DF0010E59EF1DF08C
:103AB000000E1200C7BA5FEF1DF062EF1DF0010E9D
:103AC00063EF1DF0000E1200C7AA69EF1DF06CEF46
:103AD0001DF0010E6DEF1DF0000E1200C7B073EF68
:103AE0001DF076EF1DF0010E77EF1DF0000E1200B5
:103AF000620ED36E000ED26E800E9B6E000EB56EFF
:103B000012000C0E976E000E916E000E906E0F015B
:103B100059971200E8EC1DF0000E446E000E1200E2
:103B2000F5EC1DF067EC1CF0000E1200455045242A
:103B3000D2EC1DF0030E1200D8804534D2EC1DF0FB
:103B4000040E1200EBEC1DF0020E516E12000EC0BE
:103B5000E3F00FC0E4F012000EC0EDF00FC0EEF085
:103B600012000EC0EFF00FC0F0F012000EC0F1F026
:103B70000FC0F2F01200EBEC1DF0010E516E1200BE
:103B80008AEC1DF0016E0150120090EC1DF0016EE8
:103B9000015012000E6E0EC0ADFF1200000E446EFA
:103BA000080E1200016E01C0C9FF12009D86A0869A
:103BB0001200B2EC18F01200E9EC19F01200C58AFC
:103BC000C5881200C59AC5881200C69EC69C120000
:103BD000C69AC68A1200C5801200C5821200C5921C
:103BE0001200C5861200C9501200C58412009E96AC
:0A3BF0001200A1961200120012004C
:020000040030CA
:0E00000001281F3DFF91A5FF0FC00FE00F402C
:00000001FF
